:060000008031952D000087
:0800080083018031200077081C
:100010002200B3007808B4007908B5007A08B60069
:10002000230011082200B700230012082200B800A4
:10003000230013082200B900230014082200BA008C
:10004000850192308400001D2928200012194228C1
:1000500022003308F7003408F8003508F9003608A4
:10006000FA0037082300910022003808230092008C
:10007000220039082300930022003A08230094004C
:1000800009002000883100280B00003403340234BA
:10009000FF34FF34FF34FF34FF34FF34FF34FF34C8
:1000A000FF34FF34FF34FF34FF340B000034FF34DF
:1000B0000234FF34FF34FF34FF34FF34FF34FF34A5
:1000C000FF34FF34FF34FF34FF34FF340B000834B7
:1000D00000340B3400344034003400340034003435
:1000E0000034003400340034003400340034003470
:1000F0000034003400340034003400340034003460
:1001000000340034003400340034003400340B0078
:1001100008340034003400344034003400340034F7
:10012000003400340034003400340034003400342F
:10013000003400340034003400340034003400341F
:10014000003400340034003400340034003400340F
:100150000B000934023443340034023401340034D7
:10016000803432340934043400340034013402342D
:1001700002340134003405342434003410340134A2
:100180000434243402340234053424340634003474
:100190000134053424340134003401340734053487
:1001A000813403340B340034FA3409340434013418
:1001B000003402340A340034003400340734053487
:1001C00002340234403400340134073405348234BC
:1001D00002344034003401340B0002340B0012347A
:1001E00017341B342034FF34FF34FF34FF340B004A
:1001F0001234013410340134023400340034083431
:10020000053424340B340034003401340134023416
:10021000003401340B00043403340934043408344A
:100220000334433400344334003453340034203432
:100230000334433400344334003453340034203422
:100240000034553400345334003442340034203404
:100250000034743400346F340034203400345534A6
:100260000034413400345234003454340034083003
:10027000A10020302400AB001830AA002B08200079
:10028000A30024002A082000A2008830A000A401B6
:100290002030A700A600080024003910B81B39142C
:1002A000B8133808103C031858290030F800722998
:1002B000391C6729380820004420FF3C031D6229AF
:1002C000003063290130F8002400722972293808AF
:1002D00020005520FF3C031D6F290030702901309C
:1002E000F80024002000080098302400370784001C
:1002F0000E30850080013708B80020004C21F80836
:1003000003199A292400370DF700F70DF70DF8307F
:10031000F70577088400203085008001370DF7004D
:10032000F70DF70DF830F7057708043E840020300C
:10033000850080012000080001302400B600360846
:10034000073C031CAA293608B700200074212400AA
:10035000B60A9F29200008002400AF01AE01253015
:10036000AD008030AC002C082200C90024002D080C
:100370002200CA00CB01CC012400AC012C082200D1
:10038000CD002400AC012C082200CE00083024004F
:10039000AC002C082200CF00F6017510D101D0016D
:1003A000F4014010FB01200008002200C601C50135
:1003B0002400A9012908013C031CE829C7302907AA
:1003C0008400203085000318850A8001A90ADA29F3
:1003D0002000AC212200BD010130BE00BC01200084
:1003E00008003D0090112000080024003008F200B1
:1003F00020000800FF30F20008002400AE012200B7
:100400004508460403194D2A24002E08073C03180A
:100410000B2A22004D2A22003F08003A200003192F
:10042000182A023A0319232A013A03192E2A382AD4
:1004300022004408FA0043082000A820F800240005
:10044000AF002000382A22004408FA0043082000A8
:100450000A21F8002400AF002000382A22004408B6
:10046000FA0043082000F720F8002400AF00200025
:100470002200C30A0319C40A45080319C603C503A9
:1004800024002E08AE0A203E840020308500031888
:10049000850A2F088000FF29220045084604031D15
:1004A0005A2A24002E08083C031D582A22005A2AE2
:1004B0002200BC0124002E08B0002000F521080015
:1004C000FE30F200080024002E0DF700F70DF70DA6
:1004D000F830F70577088400203085000008B00068
:1004E0002F08023C031D7A2A301F782AAF017A2A8E
:1004F0000130AF002F08033C031D8E2A8430B0006A
:100500002E0DF700F70DF70DF830F7057708043ECC
:1005100084002030850084308000952A2F0B932A98
:10052000C830B000952A8830B00003102E0DB400FA
:10053000340A20008720FA00240034082000872095
:100540002400B1007A08B2002E0DF700F70DF70D68
:10055000F830F7057708013E840020308500310827
:10056000800032183014B218B0142E0DF700F70DB9
:10057000F70DF830F7057708840020308500300843
:10058000800020000800983024003C0784000E30D2
:10059000850080080319DB2A3C0DF700F70DF70DE5
:1005A000F830F7057708043E840020308500000805
:1005B000BD00BD1FDD2A0030DE2A0130F80020001A
:1005C000080024003608BC002000C322F8080319E4
:1005D000422B2400360DF700F70DF70DF830F70524
:1005E0007708043E013E84002030850037088000F3
:1005F0003908023C031D102B360DF700F70DF70DDF
:10060000F830F7057708043E8400203085000008A4
:10061000BA003A1F0D2BB9010F2B0130B900262B60
:100620003908043C031D262B360DF700F70DF70D96
:10063000F830F70577088400203085000008BA00FC
:100640003A1F252B0130B900262BB901390B2B2B72
:10065000C830BA002D2B8830BA0038183A14B818B0
:10066000BA14360DF700F70DF70DF830F7057708D7
:10067000043E8400203085003A0880000130F800F4
:10068000452B20000030F800240020000800220044
:10069000401002302400AE00AF00200063220800AA
:1006A0002400AD08031D902B7B08013A200003199C
:1006B000602B023A0319662B013A03196C2B8D2B20
:1006C0002400B0012000F521FB018E2B2400B00195
:1006D0002000F521FB018E2B38082200C9002000E4
:1006E00039082200CA0020003A082200CB0020006E
:1006F0003B082200CC0020003C082200CD00200056
:100700003D082200CE0020003E082200CF00FB0161
:100710002400B0012000F5218E2BFB01B22B240018
:100720002D08023C031DB42B22004014C2010230EC
:100730002400AE002E0DF700F70DF70DF830F70589
:100740007708013E840020308500FA010008F80097
:100750007A08F90078082200C100C108031DB32BF4
:1007600020004723220024002000080024002E0837
:10077000BC002000C322F8080319EB2B24002E0D27
:10078000F700F70DF70DF830F7057708043E023E45
:100790008400203085000008B400013FB500300817
:1007A00085002F0884003108F8000319DF2B350875
:1007B00087003408860012001E00F80BDB2B2E0881
:1007C000B6003208B8003108B7003308B90020007D
:1007D000E1227808ED2B0030F8000800F408031936
:1007E000022C02302400AE002030B000D230AF0026
:1007F000B2017408B1000230B3002000B623F8083B
:10080000031DF40108002400AD08031D272C22005D
:100810003C0B0E2C2000FD21252C22003C08023C24
:10082000031D242CBD01BC0173082400AE002E085A
:100830003D0096002400AE080319212C0430F1007D
:10084000232C0230F100220020002D2C24002D0842
:10085000023C031D2E2C2000EE2324002000080063
:10086000C9367039E5396F39611020102010200029
:10087000CC34EE326110F232633A61102010200065
:10088000213085003530840000080319552C0F30C5
:10089000F800F701F70B4A2CF80B492C8F30F700C2
:1008A000F70B502C0000800B472C08000830F80094
:1008B0000F30F700F70B5A2C22000E1221000E12F7
:1008C0000E30F700F70B622C2300E40D22008E118E
:1008D000031C6D2C21008E1522000318722C2100A0
:1008E0008E11220021000E1620000E1E752CF80B12
:1008F000582C0F30F700F70B7B2C22000E12210032
:100900000E1200008E150E30F700F70B852C0E30FE
:10091000F700F70B892C0E1620000E1E8D2CF80107
:100920000E30F700F70B922C8E19781422000E125D
:1009300021000E1222008E1121008E118031200024
:10094000FB2D3D008E19B62C2200BB018B1BBB1763
:100950008B132000D5212200BB1B8B173D008E017D
:100960001430910092018E150130F100710BC52CED
:100970008E1AC52C9001920121001215C0308B04F3
:1009800011303D0092000230F100200008003D00CF
:100990008E01920121000C148C14F1012200BB0184
:1009A0008B1BBB178B132000D5212200BB1B8B1781
:1009B0002000A1247108023C031DD92C80311C2E7B
:1009C00022003D08F800803120001E2E2200401C2D
:1009D000E72C4208C20A333E840020308500031809
:1009E000850A00082300E400220041084202031C9B
:1009F000022DBB018B1BBB178B132000472322004A
:100A0000BB1B8B1723006408F80080312000262EC2
:100A100074083F3C003A031D282D2200BB018B1BAC
:100A2000BB178B1302302400BC002000C32222001D
:100A3000BB1B8B17F8080319262DBB018B1BBB179B
:100A40008B132000EE232200BB1B8B172000082DE8
:100A500023006708E8006808E9006A102100121DF9
:100A6000342D23006A142100121174083E3C03182F
:100A70003B2D3E30F4007408F40AD23E840020304E
:100A800085000318850A2300690880006A1C4B2D25
:100A90002100121523002200BB018B1BBB178B13F7
:100AA0002000EE232200BB1B8B17200008000B0840
:100AB0008B1323009517151400000000891B8B175A
:100AC00013087F390319932DE4001108E50012087B
:100AD000E6006408E700200008252300650891006F
:100AE000660892000B088B13951715140000000080
:100AF000891B8B17130D140D7F390319932DE400F7
:100B00001108E5001208E6006408E7002000082547
:100B100023006508910066089200910A0319920A61
:100B20002000572D2300200008003C3021009900B0
:100B30009801FD012300E001DF014430DE005C305C
:100B4000DD00E301E2018C018E01C101C20121003F
:100B50008C1222008C1621000E1122000E1521008D
:100B60008E1022008E1421000E1022000E1404306C
:100B70002300E400FA30E500200040242300E40BC9
:100B8000BA2D21000C1222000C1221008C1222001E
:100B90008C1221000E1122000E1121008E10220055
:100BA0008E1021000E1022000E1002302300E400EF
:100BB000FA30E500200040242300E40BD82D21006A
:100BC0008E150F30F700F70BE32D0E160E30F700E1
:100BD000F70BE82D22008E1121008E110F30F70047
:100BE000F70BF02D22000E1221000E12A030230070
:100BF000E4002000562C21008E1100000E1620006B
:100C00000E1E002E0F30F700F70B042E072E0000EB
:100C100021008E150F30F700F70B0C2EC0308B041F
:100C20002200BB018B1BBB178B132000AC212200C1
:100C3000BB1B8B172000C72CA124E02CF80803193C
:100C40005B2E2200401C5A2E2000E62C7808FE0065
:100C50000130FD077D081A3C031D4F2EFD010430B5
:100C60002300E400FA30E500200040242300E40BD8
:100C7000322E430B422E303091000430920020007F
:100C80005725230043080A3C031D4D2E38309100A0
:100C900004309200200057252300592E20001330E5
:100CA0007D078400213085000318850A2300610830
:0A0CB0008000220020001C2E6300CB
:101000001211F1080319682C3D0090080319672C90
:10101000101D1228121D12288E101211101D1228D8
:1010200010110E288E1C17282000682C3D00901EE1
:101030002428921E2428181C2328803120003721C0
:1010400088313D0018109012901C2A28921C2A28E2
:1010500093019010101C4F28121C4F2893019001EF
:101060009F3097003D3092009601803120009C21F6
:1010700088318031D521883116303D009800901D8F
:10108000472880312000F12188313D003F280E1291
:1010900080312000372188310330F1003D00101EDF
:1010A0005628121E5628121510128E14101F5A2878
:1010B000121B1013901D672C921D672C0F08F00057
:1010C00080312000F1218831700C2400A900A90C86
:1010D000A90C1F30A905F008031D392C2000200899
:1010E0003C392400AA0043302000A00524002A082F
:1010F000343C031D142C200024088039031DA40156
:101100002200BC01200038087F3903199128013AD8
:101110000319712A033A0319D02A233A0319752BAC
:10112000EA2B39080319A728013A0319B428023A0F
:101130000319C428063A0319D328033A0319E028EF
:101140000E3A03197429013A031980296D2A2200E5
:101150003E082000C000C10102302400B0008031F0
:101160002000F5218831702A3A0BC0280130220076
:10117000BE052400B00180312000F5218831C3284C
:101180008031FA218831702A3A0BCF282200BE1410
:101190002400B00180312000F5218831D22880312F
:1011A000FA218831702A02302200BC0020003A085F
:1011B000F3002400B00180312000F5218831702A2D
:1011C0002400AD012200C401C301BF0120003B087F
:1011D000013A0319F528033A0319FC28013A0319C7
:1011E0000129223A03192C2951292200C601123063
:1011F000C5000330BF0058292200C6014330C50096
:10120000582902302200BF002400AD0120003A0816
:1012100024002D0203181C2922004408FA00430868
:10122000803120000A218831F8002200C3070030F5
:10123000C43D2400AD0A062922004408FA004308F0
:10124000803120000A218831F800FA017808220054
:10125000C5007A08C60058293A088031EE20883146
:10126000F800FA0178082200C3007A08C400430F8E
:101270003C29C40803194C294408FA00430880316A
:101280002000A8208831F800FA0178082200C50063
:101290007A08C6005829522980312000FA21883165
:1012A0007329220080312000FA218831732922001D
:1012B0002000BF08031D6C292200C608031D6629F3
:1012C000450820003E0203186C292200C6012000B8
:1012D0003E082200C500200001302200BC00803101
:1012E0002000FD218831702A22003D082000C00026
:1012F00001302400B00080312000F5218831702AAF
:101300003A08013C031C6C2A3A082200BD00200068
:101310003A082400AD00AD08031D96290430F10001
:10132000803120009C218831662A24000530F1009C
:101330002030B0002830AF000130AE002E08073C4E
:10134000031C652A2E08B7008031200074218831E3
:101350002400B1012E088031200055208831FF3C47
:1013600003190A2A04302400B10003102E0DB60020
:10137000360A8031200087208831FA0024003608A0
:1013800080312000872088312400B2007A08B30021
:101390002E0DF700F70DF70DF830F7057708013E31
:1013A000840020308500320880002E0DF700F70DF4
:1013B000F70DF830F7057708023E840020308500ED
:1013C0002F0880003008813F03102E0DB600360A2A
:1013D0008031200087208831FA00240036088031CF
:1013E0002000872088312400AF077A08B03D88307C
:1013F000B40033183414B318B4142E0DF700F70DDD
:10140000F70DF830F70577088400203085003408A0
:101410008000200024002E088031200044208831E4
:10142000FF3C0319462A2400B1142E0DF700F70DD6
:10143000F70DF830F7057708043E023E84002030AF
:1014400085002F0880003008813F03102E0DB60064
:10145000360A8031200066208831FA0024003608E0
:1014600080312000662088312400AF077A08B03D23
:101470002E0DF700F70DF70DF830F7057708043E4D
:101480008400203085004030800020002400310896
:10149000063C031D4D2A0E30B100B10803195C2A29
:1014A0002E088031200044208831013C031D5A2A37
:1014B00024005C2A2400311698302E0784000E3058
:1014C000850031088000AE0A9E2920002400B0016A
:1014D00080312000F5218831702A8031FA2188314D
:1014E000ED2B22003D082400AD002000390803192F
:1014F000802A0A3A03198A2A013A0319B12ACC2A06
:10150000C001C10102302400B00080312000F5216B
:101510008831CF2A2400AD080319AC2A01302D02EE
:1015200080312000EC208831F8003C02031C9A2A0C
:101530002400AC2AC7303C07840020308500031803
:10154000850A0008C00001302400B000803120006E
:10155000F5218831B02A240080312000FA21883119
:10156000CF2A2400AD080319C72AC73020003C0742
:101570008400203085000318850A3A088000240082
:10158000B00180312000F5218831CB2A2400803140
:101590002000FA218831CF2A8031FA218831ED2BC1
:1015A0003C082400B800803120004C218831F80824
:1015B0000319742B3908013A0319E52A023A031971
:1015C0000D2B033A0319362B712B3C082400AD0078
:1015D0002E10AD1B2E14AD132E1CFC2A2D0DF70062
:1015E000F70DF70DF830F7057708043E840020303A
:1015F000850088308000072B2D0DF700F70DF70DC3
:10160000F830F70577088400203085008001B001AC
:1016100080312000F5218831742B3C082400AD0076
:101620002E10AD1B2E14AD132E1C242B2D0DF700E8
:10163000F70DF70DF830F7057708043E84002030E9
:10164000850084308000302B2D0DF700F70DF70D4D
:10165000F830F7057708840020308500843080005A
:10166000B00180312000F5218831742BC001C10107
:101670003C082400AD002E10AD1B2E14AD132E1C03
:101680004F2B2D0DF700F70DF70DF830F705770804
:10169000043E8400203085000008AF005B2B2D0D38
:1016A000F700F70DF70DF830F705770884002030C4
:1016B00085000008AF00AF1F5F2B2F19612B003092
:1016C000622B0130F800F80803196A2B0130200062
:1016D000C00024000230B00080312000F5218831A4
:1016E000742B8031FA218831ED2B3C0B782B7B2B2E
:1016F000BC08031DE92B3F082400AE0020003E0873
:101700002400AD00200039080319962B013A031973
:101710009C2B213A0319A42B013A0319AB2B033A52
:101720000319CF2B013A0319D82BE62B0130FB000C
:10173000803160228831E92B24002D08B0008031EF
:101740002000F5218831E92B0230FB00751480312F
:1017500060228831E92B220049082000C0002200C5
:101760004A082000C10022004B082000C2002200CD
:101770004C082000C30022004D082000C4002200B5
:101780004E082000C50022004F082000C600073088
:101790002400B00080312000F5218831E92B3A087F
:1017A000F6002400B00180312000F5218831E92BBA
:1017B0003A082200D10020003B082200D00024007B
:1017C000B00180312000F5218831E92B8031FA21E8
:1017D0008831ED2B8031FA2188313D000E12720FD5
:1017E000FB2B2400AE010330AF00803120006322C8
:1017F0008831122C3D002400AE010230AF00803150
:101800002000632288317208FE3C0319122C240048
:10181000B601B8017208B7000430B9008031200069
:10182000E1228831372C24002A08043C031D382C7F
:10183000AD0180312000502388312400AE010230F8
:10184000AF0080312000632288317208FE3C03190A
:10185000372C720F2C2C372C2400B601B8017208DB
:10186000B7000130B90080312000E1228831240026
:10187000652C7008043C031D542CFF30F200AD01B0
:101880008031200003248831720F472C522C240011
:10189000B601B8017208B7000230B90080312000EB
:1018A000E1228831642C240070195E2C2908AD00D7
:1018B0008031200050238831642C24002908AD0099
:1018C000803120000324883124003D005A28200064
:0418D0008031282813
:020000040001F9
:04000E00843FCF1F3D
:00000001FF
;PIC16F1454
;CRC=D05B  CREATED="26-sep.-17 19:38"
